:100000000C945C000C9479000C9479000C947900A9
:100010000C9479000C9479000C9479000C9479007C
:100020000C9479000C9479000C9479000C9479006C
:100030000C9479000C9479000C9479000C9479005C
:100040000C94B8010C9479000C9479000C9479000C
:100050000C9479000C9479000C9479000C9479003C
:100060000C9479000C947900000000070002010054
:100070000003040600000000000000000102040864
:100080001020408001020408102001020408102002
:10009000040404040404040402020202020203032E
:1000A0000303030300000000250028002B000000CC
:1000B0000000240027002A0011241FBECFEFD8E043
:1000C000DEBFCDBF11E0A0E0B1E0E0E6F6E002C0A7
:1000D00005900D92AE30B107D9F711E0AEE0B1E076
:1000E00001C01D92A931B107E1F70E941E030C94D3
:1000F0002B030C940000FF920F931F93CF93DF9379
:10010000F82EC7E0D0E001E010E060E08091070148
:100110000E94E80298010C2E01C0220F0A94EAF70F
:100120002F2111F061E001C060E080910B010E947D
:10013000E80261E0809107010E94E802219728F718
:10014000DF91CF911F910F91FF9008950F931F930F
:10015000CF93DF93182F062F60E0809109010E9452
:10016000E802C1E0D0E020910501309106012C1792
:100170003D0744F0812F0E947B00802F0E947B006E
:100180002196F1CF60E0809109010E94E80261E0D0
:1001900080910901DF91CF911F910F910C94E8029A
:1001A000EF92FF920F931F93CF93DF93082FE62ECA
:1001B000F42E60E0809109010E94E802C0910501DF
:1001C000D091060110E00C171D0744F480E00E9456
:1001D0007B0080E00E947B002197F5CF8E2D0E944E
:1001E0007B008F2D0E947B00C0E0D0E02196C801EB
:1001F0008C1B9D0B181619063CF480E00E947B00B6
:1002000080E00E947B00F2CF60E0809109010E94B3
:10021000E80261E080910901DF91CF911F910F9178
:10022000FF90EF900C94E802CF93C82F43EC61E06D
:100230000E94D00043EC62E08C2F0E94D00043EC7F
:1002400063E08C2F0E94D00043EC64E08C2F0E946E
:10025000D00043EC65E08C2F0E94D00043EC66E0B8
:100260008C2F0E94D00043EC67E08C2F0E94D000BE
:1002700043EC68E08C2FCF910C94D000CF93C82F23
:100280004FEF61E00E94D0004FEF62E08C2F0E94A0
:10029000D00040E063E08C2F0E94D00040E064E09A
:1002A0008C2F0E94D00040E065E08C2F0E94D0008F
:1002B00040E066E08C2F0E94D0004FEF67E08C2F6B
:1002C0000E94D0004FEF68E08C2FCF910C94D000AB
:1002D00061E080910B010E94AF0261E08091070113
:1002E0000E94AF0261E0809109010E94AF0261E0CB
:1002F0008DE00E94E80267E0809102010E94A60062
:1003000060E0809104010E94A60061E080910101FB
:100310000E94A60060E0809100010E94A60081E09A
:1003200090E090930F0180930E0180910E019091C7
:100330000F01893091054CF460E00E94A600809185
:100340000E0190910F010196ECCF6FE080910301B7
:100350000C94A60081E090E00E94140182E090E0FD
:100360000E943E0160ED77E080E090E00C94250271
:100370001F920F920FB60F9211242F933F938F93DA
:100380009F93AF93BF938091110190911201A0911F
:100390001301B09114013091100123E0230F2D3788
:1003A00020F40196A11DB11D05C026E8230F029679
:1003B000A11DB11D20931001809311019093120192
:1003C000A0931301B093140180911501909116012F
:1003D000A0911701B09118010196A11DB11D809344
:1003E000150190931601A0931701B0931801BF91C6
:1003F000AF919F918F913F912F910F900FBE0F90D2
:100400001F9018953FB7F8948091150190911601AF
:10041000A0911701B091180126B5A89B05C02F3FE8
:1004200019F00196A11DB11D3FBF6627782F892FB6
:100430009A2F620F711D811D911D42E0660F771F7B
:10044000881F991F4A95D1F70895CF92DF92EF92B6
:10045000FF92CF93DF936B017C010E940202EB01BC
:10046000C114D104E104F10479F00E9402026C1B72
:100470007D0B683E7340A0F381E0C81AD108E10803
:10048000F108C851DC4FECCFDF91CF91FF90EF9096
:10049000DF90CF900895789484B5826084BD84B550
:1004A000816084BD85B5826085BD85B5816085BD6F
:1004B000EEE6F0E0808181608083E1E8F0E0108288
:1004C000808182608083808181608083E0E8F0E0C9
:1004D000808181608083E1EBF0E0808184608083B3
:1004E000E0EBF0E0808181608083EAE7F0E08081EA
:1004F000846080838081826080838081816080834A
:100500008081806880831092C1000895833081F0DB
:1005100028F4813099F08230A1F008958630A9F056
:100520008730B9F08430D1F4809180008F7D03C092
:10053000809180008F7780938000089584B58F77B5
:1005400002C084B58F7D84BD08958091B0008F77FF
:1005500003C08091B0008F7D8093B0000895CF9349
:10056000DF9390E0FC01E458FF4F2491FC01E05739
:10057000FF4F8491882349F190E0880F991FFC0177
:10058000E255FF4FA591B4918C559F4FFC01C59149
:10059000D4919FB7611108C0F8948C912095822363
:1005A0008C93888182230AC0623051F4F8948C9134
:1005B000322F309583238C938881822B888304C0CB
:1005C000F8948C91822B8C939FBFDF91CF910895EB
:1005D0000F931F93CF93DF931F92CDB7DEB7282FD2
:1005E00030E0F901E859FF4F8491F901E458FF4FD9
:1005F0001491F901E057FF4F04910023C9F08823BB
:1006000021F069830E9486026981E02FF0E0EE0FFD
:10061000FF1FEC55FF4FA591B4919FB7F8948C91B3
:10062000611103C01095812301C0812B8C939FBF62
:100630000F90DF91CF911F910F9108950E944B026F
:100640000E946801C0E0D0E00E94AA012097E1F377
:100650000E940000F9CFF8940C942E03F894FFCF79
:0E0660000F0C0B0A0902000B000A000C000030
:00000001FF
